:10000000000002207D0400000D0500001105000025
:1000100009050000090500000905000000000000B6
:1000200000000000000000000000000015050000B6
:100030000905000000000000190500001D05000072
:100040002105000025050000290500002D05000000
:100050003105000035050000390500003D050000B0
:100060004105000045050000490500004D05000060
:100070005105000055050000590500005D05000010
:1000800061050000090500000905000009050000E0
:1000900065050000690500006D05000071050000A0
:1000A00075050000790500007D0500008105000050
:1000B00085050000890500008D0500009105000000
:1000C00095050000990500009D050000A1050000B0
:1000D000A5050000A90500000905000009050000AC
:1000E00009050000090500000905000009050000D8
:1000F00009050000090500000905000009050000C8
:1001000009050000090500000905000009050000B7
:1001100009050000090500000905000009050000A7
:10012000AD050000B1050000B5050000B9050000EF
:10013000BD050000090500000905000009050000D3
:100140000905000009050000090500000905000077
:100150000905000009050000090500000905000067
:100160000905000009050000090500000905000057
:100170000905000009050000090500000905000047
:100180000905000009050000090500000905000037
:100190000905000009050000090500000905000027
:1001A0000905000009050000C1050000C5050000A3
:1001B0000905000009050000090500000905000007
:1001C00009050000090500000905000009050000F7
:1001D00009050000090500000905000009050000E7
:1001E000090500000905000009050000C905000017
:1001F000CD05000009050000D1050000D50500006F
:10020000ED390000293A0000D9050000DD050000A5
:1002100009050000090500000905000009050000A6
:100220000905000009050000090500000905000096
:100230000905000009050000090500000905000086
:100240000905000009050000090500000905000076
:100250000905000009050000090500000905000066
:100260000905000009050000090500000905000056
:100270000905000009050000090500000905000046
:100280000905000009050000090500000905000036
:100290000905000009050000090500000905000026
:1002A000E1050000E5050000E90500000905000082
:1002B000ED05000009050000090500000905000022
:1002C00009050000090500000905000009050000F6
:1002D00009050000090500000905000009050000E6
:1002E00009050000090500000905000009050000D6
:1002F00009050000090500000905000009050000C6
:1003000009050000090500000905000009050000B5
:1003100009050000090500000905000009050000A5
:100320000905000009050000090500000905000095
:100330000905000009050000090500000905000085
:100340000905000009050000090500000905000075
:100350000905000009050000090500000905000065
:100360000905000009050000090500000905000055
:100370000905000009050000090500000905000045
:100380000905000009050000090500000905000035
:100390000905000009050000090500000905000025
:1003A0000905000009050000090500000905000015
:1003B0000905000009050000090500000905000005
:1003C00009050000090500000905000009050000F5
:1003D00009050000090500000905000009050000E5
:1003E00009050000090500000905000009050000D5
:1003F000090500000905000009050000FFFFFFFFD7
:10040000A3F5803A704700BF174B002B08BF134B72
:100410009D46FFF7F5FF00218B460F461348144A0F
:10042000121A0CF021F80E4B002B00D098470D4B00
:10043000002B00D098470020002104000D000D483B
:10044000002802D00C48AFF300800CF015F8200013
:10045000290001F0BBF90BF0F5FF00BF0000080018
:100460000000000000000000000002200008002042
:10047000DCB50020000000000000000072B6164845
:10048000164901600A6882F30888154880471549B3
:10049000154A164B9A42BEBF51F8040B42F8040BA2
:1004A000F8E7134A134B9A42BEBF51F8040B42F8C7
:1004B000040BF8E7104B00209A42BCBF42F8040B33
:1004C000FAE70E490E4A00209142BCBF41F8040BE6
:1004D000FAE762B60B48804708ED00E00000000034
:1004E0007D40000074D20000000000206801002060
:1004F0006801002068010020680100200008002039
:10050000DCB5002009040000FFF7FEBF38480047B3
:1005100038480047384800473848004738480047BF
:1005200038480047384800473848004738480047AF
:10053000384800473848004738480047384800479F
:10054000384800473848004738480047384800478F
:10055000384800473848004738480047384800477F
:10056000384800473848004738480047384800476F
:10057000384800473848004738480047384800475F
:10058000384800473848004738480047384800474F
:10059000384800473848004738480047384800473F
:1005A000384800473848004738480047384800472F
:1005B000384800473848004738480047384800471F
:1005C000384800473848004738480047384800470F
:1005D00038480047384800473848004738480047FF
:1005E00038480047384800473848004738480047EF
:1005F0000D0500001105000015050000190500009B
:100600001D0500000905000009050000090500009E
:1006100009050000090500000905000009050000A2
:100620000905000009050000090500000905000092
:100630000905000009050000090500000905000082
:100640000905000009050000090500000905000072
:100650000905000009050000090500000905000062
:100660000905000009050000795900008D590000B6
:10067000A1590000B55900009D6D0000DD6D00001E
:100680001D6E00005D6E00000905000009050000F8
:100690000905000009050000090500000905000022
:1006A0000905000009050000090500000905000012
:1006B0000905000009050000090500000905000002
:1006C00009050000090500000905000009050000F2
:1006D00009050000F1B5002A4BD011F0030306D044
:1006E00011F8014B013A00F8014B42D0F5E710F048
:1006F00003031BD1102A04DB103AF0C9102AF0C002
:10070000FAD2130744BF30C930C0530744BF51F871
:10071000044B40F8044B930744BF31F8024B20F8D8
:10072000024BD30744BF0C78047022E0C3070AD4FD
:10073000042A16D351F8044B043A20F8024B250C36
:1007400020F8025BF4E7042A0BD351F8044B043A77
:1007500000F8014B250A20F8025B260E00F8016B19
:10076000F1E7002A1EBF11F8014B00F8014B013AD6
:10077000F7D1F1BD53B94AB9002908BF00281CBF01
:100780004FF0FF314FF0FF3000F00CB8ADF1080C26
:100790006DE904CE0BF0DAFCDDF804E0DDE90223BC
:1007A00004B07047704700BF034613F8012B002ABE
:1007B000FBD1181A013870470348044B834202D01A
:1007C000034B03B1184770476801002068010020FF
:1007D000000000000548064B1B1AD90F01EBA301CE
:1007E000491002D0034B03B118477047680100203D
:1007F000680100200000000010B5064C237843B9C2
:10080000FFF7DAFF044B13B10448AFF30080012374
:10081000237010BD00080020000000004CD2000032
:1008200008B5054B1BB105490548AFF30080BDE88D
:100830000840FFF7CFBF00BF000000000408002001
:100840004CD2000080B483B000AF7860BFF35F8FFC
:1008500000BF0B4A7B6843F001035360094B5B6A9E
:10086000084A43F480335362BFF34F8F00BFBFF396
:100870006F8F00BF00BF0C37BD465DF8047B70472B
:1008800090ED00E000ED00E080B400AFBFF35F8FBB
:1008900000BF0B4B5B6A0A4A23F480335362094B57
:1008A0005B68084A23F001035360BFF34F8F00BF1A
:1008B000BFF36F8F00BF00BFBD465DF8047B70477C
:1008C00000ED00E090ED00E080B48BB000AFF86088
:1008D000B9607A60FB687B617B6953E8003F3B61EC
:1008E0003B697B62BB68DA437B6A13407A681343D7
:1008F0007B627B6A3B62FB68FB61F9693A6A41E8AB
:100900000023BB61BB69002BE4D100BF00BF2C37C3
:10091000BD465DF8047B704780B584B000AF786059
:1009200039607B689B0EFB607B68DAB2214B134415
:100930001A687B685B0BC3F30C017B681B0A03F02E
:100940001F0301FA03F3DB4302EA03017B681B0A7E
:1009500003F01F033A689A407B685B0BC3F30C00FB
:100960007B681B0A03F01F0300FA03F31A407B683D
:10097000D8B2104B0344184641EA02030360FB68F7
:10098000202B06D90C4B0D4A4FF4B1610C480AF0EC
:1009900007FDFB68202B09D000BF064B9A6CFB6853
:1009A00022FA03F303F00103002BF6D100BF103746
:1009B000BD4680BD00C00F40C4C400006CCE000026
:1009C000E4C4000080B584B000AF786039607B6813
:1009D0009B0EFB607B68DAB2214B13441A687B687C
:1009E0005B0BC3F30C017B681B0A03F01F0301FAC6
:1009F00003F3DB4302EA03017B681B0A03F01F03D6
:100A00003A689A407B685B0BC3F30C007B681B0A57
:100A100003F01F0300FA03F31A407B68D8B2104BAF
:100A20000344184641EA02030360FB68202B06D901
:100A30000C4B0D4A40F2BC510C480AF0B1FCFB686B
:100A4000202B09D000BF064B9A6CFB6822FA03F3F7
:100A500003F00103002BF6D100BF1037BD4680BD67
:100A600000C00F40C4C400007CCE0000E4C40000FD
:100A700080B586B000AF03460A46FB8013467B7103
:100A8000B7F906301B0A7B61FB8803F01F033B614B
:100A90007B69072B06D90E4B0E4A40F2DE510E48F9
:100AA0000AF07EFC7B699A000C4B1344FB60032226
:100AB0003B6902FA03F17A793B6902FA03F31A46B9
:100AC000F868FFF701FF00BF1837BD4680BD00BFC3
:100AD00030C5000058CE0000E4C4000068C00F40DC
:100AE00080B582B000AF0346FB80B7F90630032122
:100AF0001846FFF7BDFF00BF0837BD4680BD80B474
:100B000085B000AFF860B9607A603B60BB6803F005
:100B10000F01FB691B0103F01002FB680A431A6016
:100B20007B68002B02D07B683A681A6000BF1437DC
:100B3000BD465DF8047B704780B485B000AFF860B7
:100B4000B9607A603B60BB69002B02D0BB69FA696F
:100B50001A6000BF1437BD465DF8047B7047000083
:100B600080B400AF114BDB68104A43F08073D36050
:100B70000F4B00225A600E4B1B680D4A43F00103D5
:100B800013600C4B1B680C4AA2FB03239B0C0B4A03
:100B900013600A4B1B68002B02D1084B01221A601C
:100BA00000BFBD465DF8047B704700BFF0ED00E07C
:100BB000001000E06401002083DE1B4300000020E1
:100BC00080B586B000AFBFF34F8F00BFBFF36F8F0C
:100BD00000BF684B5B69674A23F400335361654B80
:100BE0000022C3F85022BFF34F8F00BFBFF36F8FB7
:100BF00000BF00BF5F4B0022C3F88420BFF34F8FBC
:100C000000BF5C4B5B695B4A23F480335361BFF3E5
:100C10004F8F00BF574A3B1DC2F87032554A3B46C2
:100C2000C2F87032534A07F10803C2F87032BFF3BA
:100C30004F8F00BFBFF36F8F00BF4E4BD3F8803094
:100C4000BB60BB685B0BC3F30E037B60BB68DB0858
:100C5000C3F309033B607B685A0143F6E07313401A
:100C60003A68920743491343C1F874323B685A1EED
:100C70003A60002BEFD17B685A1E7A60002BE5D1D9
:100C8000BFF34F8F00BFBFF36F8F00BF00BFFFF7F1
:100C9000FBFD394B394ADA60374B394A1A61062075
:100CA000FFF7D0FD334B5B6903F48033002B38D161
:100CB000304B0022C3F88420BFF34F8F00BF2D4B71
:100CC000D3F880307B617B695B0BC3F30E033B6120
:100CD0007B69DB08C3F30903FB603B695A0143F6F8
:100CE000E0731340FA68920722491343C1F8603257
:100CF000FB685A1EFA60002BEFD13B695A1E3A611D
:100D0000002BE5D1BFF34F8F00BF1A4B5B69194A27
:100D100043F480335361BFF34F8F00BFBFF36F8F36
:100D200000E000BF134B5B6903F40033002B1BD1C1
:100D3000BFF34F8F00BFBFF36F8F00BF0D4B00227B
:100D4000C3F85022BFF34F8F00BFBFF36F8F00BFB8
:100D5000084B5B69074A43F400335361BFF34F8F7D
:100D600000BFBFF36F8F00E000BF00BF1837BD4664
:100D700080BD00BF00ED00E090ED00E017000080B6
:100D80003100070380B582B000AF0D4A3B1D1268E9
:100D9000114619800233120C1A700A49002003F020
:100DA000BDFB0849002003F07BFB3B1D1A460649AA
:100DB00002200AF083FA00BF0837BD4680BD00BF9D
:100DC00040C5000000389C1C00366E0180B400AFA6
:100DD000074B5A68074B1B684FF47A7101FB03F30A
:100DE000B2FBF3F31846BD465DF8047B704700BFC5
:100DF000001000E00000002080B485B000AF7860F3
:100E00000B4B5B68FB600B4B1A687B6802FB03F3C0
:100E1000BB6000BF064B5A68FB68D31ABA689A4297
:100E2000F8D800BF00BF1437BD465DF8047B70479B
:100E3000001000E00000002080B582B000AF7860B4
:100E400006E04FF47A70FFF7D7FF7B68013B7B60C9
:100E50007B68002BF5D100BF00BF0837BD4680BDC1
:100E600080B582B002AF40F20240FFF739FE0123A5
:100E700001933F4B009301233E4A03213E48FFF775
:100E80003EFE012301933D4B009301233C4A032185
:100E90003C48FFF734FE41F2B0030193344B00931A
:100EA0000123344A03213448FFF746FE41F2B003E0
:100EB0000193324B00930123314A03213148FFF75C
:100EC0003BFE00230193304B009300232F4A032164
:100ED0002F48FFF714FE002301932E4B00930023AD
:100EE0002D4A03212D48FFF70AFE002301932C4BC6
:100EF000009300232B4A03212B48FFF700FE002319
:100F000001932A4B00930023294A03212948FFF724
:100F1000F6FD41F2B00301931B4B009300231B4AE3
:100F200003211B48FFF708FE41F2B0030193194B60
:100F300000930023184A03211848FFF7FDFD41F2F2
:100F4000B0030193164B00930023164A0321164861
:100F5000FFF7F2FD41F2B0030193144B009300231D
:100F6000134A03211348FFF7E7FD00BFBD4680BDCC
:100F7000EC821F40CC841F40FC801F40F0821F4049
:100F8000D0841F4000811F402C831F401C851F40C0
:100F90003C811F4030831F4024851F4040811F40FB
:100FA00034831F4028851F4044811F4038831F40E1
:100FB00020851F4048811F4080B582B002AF0023CA
:100FC00001932A4B00930023002205212848FFF7B4
:100FD00096FD00230193274B00930023264A072107
:100FE0002648FFF78CFD00230193254B0093012336
:100FF000244A02212448FFF782FD00230193234B5A
:1010000000930123224A02212248FFF778FD41F292
:10101000B0030193154B00930023002205211448CF
:10102000FFF78AFD41F2B0030193124B00930023B6
:10103000114A07211148FFF77FFD41F2B0030193E8
:101040000F4B009301230F4A02210F48FFF774FD55
:1010500041F2B00301930D4B009301230C4A02218E
:101060000C48FFF769FD00BFBD4680BDB8821F4038
:10107000C8801F40B4821F4014851F40C4801F4099
:1010800024831F4018851F4034811F4028831F4040
:1010900010851F4038811F4080B588B000AF40F2F6
:1010A0000620FFF71DFD00210B48FFF735FC00214E
:1010B0000A48FFF787FC3B1D184603F0B9FF084BB1
:1010C000FB603B1D074A1946074803F0E7FF00BFD6
:1010D0002037BD4680BD00BF3832008038F307801E
:1010E000801A06000087930300003F4080B588B057
:1010F00000AF4FF48370FFF7F3FC3B46184604F053
:10110000ADFE094B3B6000233B7601233B7201237C
:101110007B723B46054A1946054804F0DFFD00BFD7
:101120002037BD4680BD00BF80A8120100544B0689
:1011300000003A4080B58AB000AF1C4A3B1D1268DF
:10114000114619800233120C1A70194B1B78002BB0
:1011500027D1FFF731FF4FF48D70FFF7C1FC4FF43B
:101160008270FFF7BDFC3B1D1A460321114803F0B6
:1011700059FC07F10803184604F070FE0E4BBB60E3
:10118000002387F8203007F108030C4A19460C4861
:1011900004F0A4FD064B01221A700A480AF028FC4C
:1011A00000E000BF2837BD4680BD00BF60C500001D
:1011B000C09F002000801B4000093D0000544B06EA
:1011C00000C0394044C5000080B500AFC820FFF71B
:1011D00033FE00BF80BD000080B58AB000AF03467B
:1011E0000A46FB801346BB80FB881B0A9BB2DBB21E
:1011F00087F82430FB88DBB287F82530BB881B0AD0
:101200009BB2DBB287F82630BB88DBB287F8273089
:1012100007F10C031822002118460BF025F90023D2
:10122000FB602A233B820023BB7407F12403FB618C
:1012300004233B6207F10C031946084804F058FAEE
:101240000346002B01D0002303E00520FFF7F4FD47
:10125000012318462837BD4680BD00BF00003F402F
:1012600080B58AB000AF03463960FB800023BB84A1
:101270003B68002B01D100232EE007F10C0318225C
:10128000002118460BF0F0F80023FB602A233B8274
:101290000123BB74FB887B610223BB6107F124033C
:1012A000FB6102233B6207F10C0319460C4804F072
:1012B0001FFA0346002B01D000230DE097F82430DD
:1012C0001BB21B021AB297F825301BB213431BB294
:1012D0009AB23B681A80012318462837BD4680BD64
:1012E00000003F4080B584B000AF7860FFF76EFD2E
:1012F000F86000237B8115E007F10A0319460220FC
:10130000FFF7AEFF034683F00103DBB2002B12D1DF
:101310007B8903F00103002B01D101230DE00A209A
:10132000FFF78AFDFFF752FD0246FB68D31A7A6881
:101330009A42E1D800E000BF002318461037BD46AE
:1013400080BD80B582B000AF03460A46FB801346DD
:10135000BB804FF4FA60FFF7C5FF034683F001033B
:10136000DBB2002B01D0002326E0BB881946082001
:10137000FFF732FF0346002B1AD001210620FFF7AA
:101380002BFF0346002B13D0FB8843F002039BB2D4
:1013900019460420FFF720FF0346002B08D04FF426
:1013A000FA60FFF79FFF0346002B01D0012300E006
:1013B000002303F00103DBB218460837BD4680BDA9
:1013C00080B582B000AF0123FB711BE0002140F229
:1013D0000110FFF7B6FF0346002B09D007214FF499
:1013E0000170FFF7AEFF0346002B01D001230DE093
:1013F000FB79194607480AF0FBFAFFF7E5FEFB798F
:101400000133FB71FB79032BE0D900231846083721
:10141000BD4680BD64C5000080B485B000AF786073
:101420000B467B800023FB6000237B810AE07B89E5
:101430007A6813441B781A46FB681344FB607B8967
:1014400001337B817A897B889A42F0D3FB689BB217
:1014500018461437BD465DF8047B704780B483B0EE
:1014600000AF78600B467B807B881B0A9BB2DAB2A8
:101470007B681A707B6801337A88D2B21A7000BF19
:101480000C37BD465DF8047B7047000080B58CB01A
:1014900000AF0346FB80524BBB629F23FB84FFF7E8
:1014A00049FE504B1B7883F00103DBB2002B02D0C6
:1014B0004FF0FF338FE00023FB8586E0FB8DF222A7
:1014C00002FB03F33B623B6AC3F51643F22B05D8DC
:1014D0003B6A9AB2444B9B1A9BB200E0F223FB8317
:1014E0004FF48072002141480AF0BEFF3F4B542266
:1014F0001A703E4B45225A703C4B53229A703B4B1C
:101500005422DA70FB8819463948FFF7A7FFFB8D94
:1015100019463848FFF7A2FFFB8C19463648FFF7FB
:101520009DFFFB8B19463548FFF798FFBA6A3B6A67
:101530001344FA8B19463248FFF7CCF8FB8B194657
:101540002F48FFF769FF034619462E48FFF786FF2D
:1015500007F10C031022002118460AF085FF234BE7
:10156000FB604FF480737B610023BB610022032189
:10157000254803F0A9FA0520FFF73EFC07F10C030C
:101580001946224805F0DEF80346002B0ED0012252
:1015900003211D4803F098FAF988FB8D5A1CFB8C37
:1015A0001B480AF025FA4FF0FF3314E00520FFF73F
:1015B00023FC01220321144803F086FA4FF49670AD
:1015C000FFF71AFCFB8D0133FB85FA8DFB8C9A42E9
:1015D000FFF474AF002318463037BD4680BD00BF0E
:1015E0001C080020C09F00200096FFFFC09E002026
:1015F000C49E0020C69E0020C89E0020CA9E0020D7
:10160000CE9E0020CC9E002000801B4000C03940B0
:1016100088C5000080B58EB000AF7860FFF7D6FBBC
:10162000B86200237B63002387F833307B68002B8C
:1016300001D10023BBE0FFF7C9FB0246BB6AD31A06
:1016400040F6B832934204D97B687A6B1A60002363
:10165000ADE007F108031022002118460AF004FF4C
:10166000554BFB60A4233B6100237B6107F108031A
:101670001946524805F066F878627B6A002B17D04D
:101680007B6B01337B63796B4D4BA3FB01231A0901
:1016900013469B0013449B00CA1A002A04D17A6B9C
:1016A000796A48480AF0A4F90520FFF7C5FB7DE0F8
:1016B000414B1B7803F00F030F2B06D17B6B0133DB
:1016C0007B631E20FFF798FB70E03B4B5B783B2B66
:1016D00003D97B6B01337B6368E0374B5B78142B5A
:1016E00013D1354B1B781B09DBB203F0070387F8D6
:1016F000233097F82330002B07D097F82330042BA2
:1017000003D897F8233087F8333097F83330002B1D
:1017100091D097F833304FF4965203FB02F2264BE8
:101720005B7819460B469B000B441B011344A3F541
:101730009653FB61FB695033B3F5964F23D80023D2
:10174000FB621DE0FB6A02335B001B4AD35CFB7645
:10175000FB6A5B000533184AD35CBB76BB7E1BB2C9
:101760001B021AB2FB7E1BB2134319B2FA69FB6A61
:10177000134489B2144A22F81310FB6A0133FB6246
:10178000FB6A4F2BDED90C4B5B783B2B7FF453AFBE
:1017900097F83330042B04D17B687A6B1A600123ED
:1017A00005E097F83330013387F8333043E71846C4
:1017B0003837BD4680BD00BF1C9E002000003A4067
:1017C000CDCCCCCCB8C500001C08002080B582B0C0
:1017D00000AF0123FB8000F0B1F8FFF7F1F900F052
:1017E00007FCFFF7CFFA00230222002102200AF0B3
:1017F00037F802F0DFFC1620FFF772F9FFF7B0F9B7
:10180000FFF72EFBFFF748FCFFF770FCFFF792FC99
:1018100023480AF0EDF84FF47A70FFF70DFBFFF75D
:10182000CFFD034683F00103DBB2002B07D01D4838
:101830000AF0DEF84FF47A70FFF7FEFAFAE71A487A
:101840000AF0D6F800233B603B461846FFF7E2FE5D
:10185000034683F00103DBB2002B07D03B68194637
:1018600012480AF0C5F8FFF7AFFCEBE7FB88184613
:10187000FFF70CFE0346002B08D1FB8819460C48E5
:101880000AF0B6F8FB880133FB8004E0FB881946B8
:1018900008480AF0ADF8FA20FFF7CEFAD2E700BF09
:1018A000E8C50000FCC5000020C6000050C60000CE
:1018B00084C60000A4C6000080B483B000AF786086
:1018C000BFF35F8F00BF0B4A7B6843F00103536097
:1018D000094B5B6A084A43F480335362BFF34F8F6E
:1018E00000BFBFF36F8F00BF00BF0C37BD465DF870
:1018F000047B704790ED00E000ED00E080B400AFA5
:10190000BFF35F8F00BF0B4B5B6A0A4A23F480333F
:101910005362094B5B68084A23F001035360BFF32D
:101920004F8F00BFBFF36F8F00BF00BFBD465DF894
:10193000047B704700ED00E090ED00E080B58AB0D8
:1019400000AF9F4B7B629F4B3B6200233B619E4BF2
:101950005B6903F40033B3F5003F16D1BFF34F8F3B
:1019600000BFBFF36F8F00BF974B5B69964A23F4AC
:1019700000335361944B0022C3F85022BFF34F8FC2
:1019800000BFBFF36F8F00BF00BF8F4B5B6903F4D5
:101990008033B3F5803F4DD18B4B0022C3F88420B8
:1019A000BFF34F8F00BF884B5B69874A23F48033B6
:1019B0005361BFF34F8F00BF834A07F10803C2F89A
:1019C0007032814A3B1DC2F870327F4A07F10C0326
:1019D000C2F87032BFF34F8F00BFBFF36F8F00BFED
:1019E000794BD3F88030FB60FB685B0BC3F30E03CD
:1019F000BB60FB68DB08C3F309037B60BB685A016B
:101A000043F6E07313407A6892076F491343C1F8B5
:101A100074327B685A1E7A60002BEFD1BB685A1E65
:101A2000BA60002BE5D1BFF34F8F00BFBFF36F8FBC
:101A300000BF00BFFFF762FF644B1022DA60634B08
:101A4000634A1A61614B634ADA60604B624A1A6109
:101A50005E4B624ADA605D4B5F4A1A615B4B14224F
:101A6000DA605A4B5E4A1A61584B1522DA60574BBE
:101A70005C4A1A61554B5C4ADA60544B594A1A6108
:101A8000524B5A4ADA60514B594A1A614F4B594AE4
:101A9000DA604E4B584A1A6102E03B6901333B6100
:101AA0003B693A6A22FA03F3012BF6D83B69002B13
:101AB00037D07B6A3A6AB3FBF2F2396A01FB02F271
:101AC0009B1A002B06D04D4B4D4A40F285114D48D4
:101AD00009F066FC3B6901229A403B6A9A4206D0B3
:101AE000494B474A4FF4C371464809F059FC3B69DA
:101AF000042B06D8454B424A40F28711414809F071
:101B00004FFC7B6A23F01F03304A43F01A03D36073
:101B10003B69013B5B0003F03E022C493C4B134305
:101B20000B612A4B3B4ADA60284B3B4A1A61274B30
:101B30003A4ADA60254B3A4A1A610620FFF7BCFEA2
:101B4000214B5B6903F48033002B6BD11E4B0022C9
:101B5000C3F88420BFF34F8F00BF1B4BD3F88030F6
:101B6000FB61FB695B0BC3F30E03BB61FB69DB0825
:101B7000C3F309037B61BB695A0143F6E073134069
:101B80007A69920710491343C1F860327B695A1E83
:101B90007A61002BEFD1BB695A1EBA61002BE5D1E7
:101BA000BFF34F8F00BF084B5B69074A43F4803394
:101BB0005361BFF34F8F00BFBFF36F8F33E000BFA0
:101BC000000020200000000000ED00E090ED00E0AB
:101BD0003F00001011000080390010031200006067
:101BE0003B001003210003031600002017002020F3
:101BF000250003031800282023000303C4C60000A7
:101C00008CCE0000DCC6000044C7000060C70000A6
:101C1000010008031B0000402B0010031C000042C1
:101C20002700100300BF134B5B6903F40033002B44
:101C30001BD1BFF34F8F00BFBFF36F8F00BF0D4BA2
:101C40000022C3F85022BFF34F8F00BFBFF36F8F46
:101C500000BF084B5B69074A43F400335361BFF38D
:101C60004F8F00BFBFF36F8F00E000BF00BF28376A
:101C7000BD4680BD00ED00E080B48BB000AFF860E1
:101C8000B9607A60FB687B617B6953E8003F3B6128
:101C90003B697B62BB68DA437B6A13407A68134313
:101CA0007B627B6A3B62FB68FB61F9693A6A41E8E7
:101CB0000023BB61BB69002BE4D100BF00BF2C3700
:101CC000BD465DF8047B704780B584B000AF786096
:101CD00039607B689B0EFB607B68DAB2214B134452
:101CE0001A687B685B0BC3F30C017B681B0A03F06B
:101CF0001F0301FA03F3DB4302EA03017B681B0ABB
:101D000003F01F033A689A407B685B0BC3F30C0037
:101D10007B681B0A03F01F0300FA03F31A407B6879
:101D2000D8B2104B0344184641EA02030360FB6833
:101D3000202B06D90C4B0D4A4FF4B1610C4809F029
:101D40002FFBFB68202B09D000BF064B9A6CFB6869
:101D500022FA03F303F00103002BF6D100BF103782
:101D6000BD4680BD00C00F4068C70000E0CE000047
:101D700088C7000080B584B000AF786039607B68A8
:101D80009B0EFB607B68DAB2214B13441A687B68B8
:101D90005B0BC3F30C017B681B0A03F01F0301FA02
:101DA00003F3DB4302EA03017B681B0A03F01F0312
:101DB0003A689A407B685B0BC3F30C007B681B0A94
:101DC00003F01F0300FA03F31A407B68D8B2104BEC
:101DD0000344184641EA02030360FB68202B06D93E
:101DE0000C4B0D4A40F2BC510C4809F0D9FAFB6883
:101DF000202B09D000BF064B9A6CFB6822FA03F334
:101E000003F00103002BF6D100BF1037BD4680BDA3
:101E100000C00F4068C70000D0CE000088C7000097
:101E200080B586B000AF03460A46FB8013467B713F
:101E3000B7F906301B0A7B61FB8803F01F033B6187
:101E40007B69072B06D90E4B0E4A40F2DE510E4835
:101E500009F0A6FA7B699A000C4B1344FB6003223D
:101E60003B6902FA03F17A793B6902FA03F31A46F5
:101E7000F868FFF701FF00BF1837BD4680BD00BFFF
:101E8000D4C70000BCCE000088C7000068C00F4067
:101E900080B582B000AF0346FB80B7F90630002161
:101EA0001846FFF7BDFF00BF0837BD4680BD0000E4
:101EB00080B483B000AF7860044A7B68136000BFD1
:101EC0000C37BD465DF8047B704700BFE8A10020D9
:101ED00080B483B000AF7860044A7B68136000BFB1
:101EE0000C37BD465DF8047B704700BFECA10020B5
:101EF00080B485B000AFF860B9601346FB71FB7920
:101F0000002B0BD0BB681B0CC3F30B02FB68134404
:101F100004331A464FF4803313600AE0BB681B0C8D
:101F2000C3F30B02FB68134408331A464FF48033A3
:101F3000136000BF1437BD465DF8047B704780B462
:101F400085B000AF78600B46FB701346BB70FB7822
:101F5000032B12D97B685A68FB78032101FA03F33B
:101F6000DB431340FB60BB7803F00302FB789A402D
:101F7000FB681A437B685A6011E07B685A68FB78FB
:101F8000072101FA03F3DB431340FB60BB7803F046
:101F90000702FB789A40FB681A437B685A6000BFCF
:101FA0001437BD465DF8047B7047000080B485B0EF
:101FB00000AF78600B46FB701346BB707B689A6875
:101FC0000A4B1340FB60FB789B0603F08062FB68C2
:101FD0001A43BB781B0403F47F031A437B689A609F
:101FE00000BF1437BD465DF8047B7047FFFF00FB60
:101FF00080B500AF00F002F800BF80BD80B582B0B0
:1020000000AF4FF40040FFF763FFDB4BD3F8C03263
:10201000D94A43F48033C2F8C032D74BD3F8C03228
:10202000D54A23F40033C2F8C032D448FFF740FF4A
:10203000002002F0CDF902F021FA012002F004FAAA
:10204000CF4B1B6823F0FF03CD4A43F07F0313609F
:102050000121CC48FFF738FE0121CB48FFF734FEC1
:10206000CA4BDB6823F01F03C84A43F01303D36055
:1020700000BFC64B1B6803F00043B3F1004FF8D11B
:102080000021C348FFF776FE4FF48870FFF700FF8A
:102090004FF48470FFF7FCFE40F21620FFF7F8FEC5
:1020A0004FF40670FFF7F4FE40F20E20FFF7F0FE4B
:1020B0000321B848FFF75EFE0121B748FFF75AFE3B
:1020C0000021B648FFF756FE4FF48A70FFF7E0FE96
:1020D0004FF48B70FFF7DCFE1820FFF7D9FE1A20B3
:1020E000FFF7D6FE4FF48670FFF7D2FE0121AC4811
:1020F000FFF740FE40F20260FFF7CAFE0121A94847
:10210000FFF738FE0021A848FFF7DEFD40F204602B
:10211000FFF7BEFE0121A548FFF72CFE0021A448D1
:10212000FFF7D2FD4FF44170FFF7B2FE07214FF2E7
:102130001400FFF71FFE00219E48FFF7C5FD002198
:102140009D48FFF7C1FD40F20A60FFF7A1FE0121A3
:102150009A48FFF70FFE03219948FFF7B5FD40F2BB
:102160000270FFF795FE01219648FFF703FE01215B
:102170009548FFF7A9FD40F20220FFF789FE0121F3
:102180009248FFF7F7FD00219148FFF79DFD4FF4BE
:102190008070FFF77DFE4FF48170FFF779FE4FF4FA
:1021A0008270FFF775FE4FF48370FFF771FE042114
:1021B0008848FFF7DFFD02218748FFF785FD1620DD
:1021C000FFF766FE03218548FFF7D4FD0021844810
:1021D000FFF77AFD40F21250FFF75AFE03218148C3
:1021E000FFF7C8FD01218048FFF7C4FD00217F48AB
:1021F000FFF76AFD40F21450FFF74AFE03217C48C6
:10220000FFF7B8FD01217B48FFF7B4FD00217A48B4
:10221000FFF75AFD40F21650FFF73AFE03217748C8
:10222000FFF7A8FD01217648FFF7A4FD00217548BE
:10223000FFF74AFD40F20620FFF72AFE4FF4027036
:10224000FFF726FE40F20A20FFF722FE00216E482B
:10225000FFF790FD00216D48FFF736FD0E20FFF7D8
:1022600017FE1220FFF714FE40F20670FFF710FE73
:102270001020FFF70DFE1420FFF70AFE4FF4E16077
:10228000FFF706FE01216248FFF774FD0221614855
:10229000FFF71AFD4FF4A360FFF7FAFD1C20FFF7CC
:1022A000F7FD0C20FFF7F4FD4FF48C70FFF7F0FD05
:1022B00040F20230FFF7ECFD40F20630FFF7E8FD98
:1022C00040F21A50FFF7E4FD40F20E60FFF7E0FD28
:1022D00000215148FFF74EFD00215048FFF7F4FC64
:1022E00040F20A30FFF7D4FD01214D48FFF742FDCF
:1022F00003214C48FFF73EFD05214B48FFF7E4FC66
:1023000040F20E50FFF7C4FD01214848FFF732FDAF
:1023100007214748FFF72EFD03214648FFF7D4FC6D
:1023200040F20250FFF7B4FD01214348FFF722FDC0
:1023300007214248FFF71EFD03214148FFF7C4FC77
:102340004FF44070FFF7A4FD01213E48FFF712FD56
:1023500007213D48FFF70EFD03213C48FFF7B4FC81
:1023600000213B48FFF7B0FC3A4802F00DF93A482B
:1023700002F03EF91B2171E000800D4000366E0135
:1023800000C00F40186C0080143900140000084091
:1023900014EA00041468008010E0004014FB008080
:1023A0001CE0078024EB00801C30008024F00080BB
:1023B0001C31008014270080142600801CF7008048
:1023C0001C7D008018FD0080186800803CEB0080B8
:1023D0003C69008018FA008018640080247900802D
:1023E000186E008028E6008028E007801C6A0080C4
:1023F0002CE600802CE007801C6C008028F6008012
:1024000028F007801C6E008038F307803832008087
:1024100020E207802068008024E0078024260080D6
:1024200038EC008018F7008038EF008030F9008029
:1024300030F600803074008030EC008030E900809D
:102440003067008028E9008028F900802073008030
:102450000C2000809CCE0000A4CE0000002002F0E2
:1024600071F91021012002F06DF91821022002F00B
:1024700069F91021032002F065F99A4802F006F983
:102480002121002002F090F91021012002F08CF9A6
:102490001121022002F088F91321032002F084F9AF
:1024A000914B1B69904A23F04003136102F02EF90F
:1024B00001228E498C48FFF71BFD8B4BD3F87031FE
:1024C000894A23F40043C2F87031874BD3F8703146
:1024D000854A23F40003C2F87031834B1B6F824A94
:1024E00043F400531367804BD3F8A0307E4A23F4A3
:1024F0000053C2F8A0307C4BD3F8A03023F4E03373
:10250000794A43F48033C2F8A030774B0022C3F8F5
:10251000B020754B0122C3F8C020734BD3F8A03014
:10252000734A1A4042F21F0313437B607B6843F4F3
:1025300000237B606C4BD3F870316B4A43F040430F
:10254000C2F87031684A7B68C2F8A03000BF664BA1
:10255000D3F8A030002BFADA002266496248FFF770
:10256000C7FC02F0E1F8012263495F48FFF7C0FCB5
:102570005D4BD3F8E03023F003035B4A43F00103E3
:10258000C2F8E030584BD3F8E030574A43F40053D8
:10259000C2F8E030544BD3F8E030534A23F00C0338
:1025A000C2F8E030504BD3F8E0304F4A43F4801388
:1025B000C2F8E0304C4BD3F8E0304B4A43F4001300
:1025C000C2F8E03002F096F801224C494648FFF785
:1025D0008FFC454B1B6A444A43F4005313620321AA
:1025E0004748FFF771FB00214648FFF76DFB0021CC
:1025F0004548FFF769FB00214448FFF765FB3A4B6C
:10260000D3F86031384A23F01F03C2F86031404BE1
:102610001B6E3F4A23F0700313663D4B1B6E23F085
:102620000F033B4A43F001031366394B1B6E384AD4
:1026300023F460031366364B1B6E23F4F813344AFD
:1026400043F490131366324B1B6E314A23F48073AC
:1026500013662F4B1B6E2E4A23F0800313662C4B00
:102660001B6E2B4A23F08073136600220021294839
:10267000FFF765FC002203212648FFF760FC0022DB
:1026800006212448FFF75BFC002208212148FFF7C0
:1026900056FC00220A211F48FFF751FC00220021AE
:1026A0001C48FFF783FC1B4B5B681A4A23F400337A
:1026B0005360184B5B68174A23F480235360154B13
:1026C0005B69144A23F080535361124B5B69114AD2
:1026D00023F000535361104B104A1A6000BF0837B3
:1026E000BD4680BDB8CE000000800D400D007000DA
:1026F00080CFFFFF0D00A0000D00E0000D002000C6
:102700001872008014390014186C00801C26008098
:1027100000C00F4000C00A40640100200046C323EF
:1027200080B483B000AFEFF310833B603B687B6005
:1027300072B600BF7B6818460C37BD465DF8047B57
:10274000704780B485B000AF78607B68FB60FB6841
:1027500083F3108800BF00BF1437BD465DF8047BCB
:10276000704780B485B000AF786039600023FB818A
:102770007B68DB68002B08D07B68DA687B689B6825
:102780009A4202D143F27A73FB81FB8918461437CF
:10279000BD465DF8047B704780B584B000AF7860BB
:1027A0003960FFF7BDFFF86000237B8139687868E6
:1027B000FFF7D7FF03467B817B89002B19D17B680C
:1027C0009B68002B03D17B683A681A6003E07B6842
:1027D0005B683A681A603B687A685A603B68002216
:1027E0001A607B683A685A607B689B685A1C7B68F1
:1027F0009A60F868FFF7A5FF7B8918461037BD4639
:1028000080BD80B584B000AF7860FFF789FFB86005
:102810007B68002B03D07B689B68002B02D10023D0
:10282000FB6015E07B681B68FB607B689B685A1E39
:102830007B689A607B689B68002B02D17B680022D2
:102840005A60FB6800225A60FB681A687B681A604D
:10285000B868FFF776FFFB6818461037BD4680BDA5
:1028600080B483B000AF78607B681B6818460C3773
:10287000BD465DF8047B704780B483B000AFEFF3D2
:1028800010833B603B687B6072B600BF7B68184674
:102890000C37BD465DF8047B704780B485B000AF4F
:1028A00078607B68FB60FB6883F3108800BF00BF23
:1028B0001437BD465DF8047B704780B582B000AF29
:1028C0007860FFF7D9FF02467B681A6000BF0837BF
:1028D000BD4680BD80B582B000AF78607868FFF7F4
:1028E000DCFF00BF0837BD4680BD000080B584B066
:1028F00000AF78607B68FB607B68002B06D1094BDA
:10290000094A40F24F31094808F04AFDFB680022AD
:102910005A70FB6800221A70002318461037BD4613
:1029200080BD00BF40C80000F0CE0000F4C700002A
:1029300080B584B000AF78607B68002B06D1094B6E
:10294000094A40F2BE31094808F02AFD7B68FB6065
:1029500002220021F86809F087FD0023184610378D
:10296000BD4680BD40C8000000CF0000F4C7000095
:1029700080B483B000AFEFF310833B603B687B60B3
:1029800072B600BF7B6818460C37BD465DF8047B05
:10299000704780B485B000AF78607B68FB60FB68EF
:1029A00083F3108800BF00BF1437BD465DF8047B79
:1029B000704780B483B000AFEFF305837B607B6822
:1029C000002B14BF01230023DBB218460C37BD4691
:1029D0005DF8047B704780B582B000AF78603960E5
:1029E0003B6819467868FFF7D7FE00BF0837BD4639
:1029F00080BD80B582B000AF78607868FFF701FFD6
:102A000000BF0837BD4680BD80B584B000AF786098
:102A10004FF0FF33FB600A4B1B68002B0AD0084BBA
:102A20001B681B68002B05D0054B1B681B6878686A
:102A30009847F860FB6818461037BD4680BD00BF58
:102A4000C49F002080B584B000AF78604FF0FF33A2
:102A5000FB600A4B1B68002B0AD0084B1B685B68A5
:102A6000002B05D0054B1B685B6878689847F860B9
:102A7000FB6818461037BD4680BD00BFC49F0020CC
:102A800080B584B000AF786043F22153FB817B684E
:102A900064331846FFF7E4FEB860BB68002B1DD016
:102AA0000020FFF7B1FF7B689B78022B0CD17B687D
:102AB00003F10C00BB689968BB68DB681A4601F03B
:102AC00047F80346FB8103E043F22153FB8100BF3B
:102AD000FB89002B02D00020FFF7B4FFFB891846CA
:102AE0001037BD4680BD80B586B000AFF860B960D4
:102AF0007A603B6043F22153FB82BB68002B0CD011
:102B0000FB689B78022B08D1FB680C333A68796824
:102B1000184601F061F80346FB82FB8A1846183715
:102B2000BD4680BD80B584B000AF7860FFF720FF60
:102B3000F8607B689B78022B05D17B680C331846C4
:102B400001F0E3F800E000BFF868FFF722FF00BFE4
:102B50001037BD4680BD80B588B000AF78607B6817
:102B6000BB61BB69002B59D0BB6974331846FFF7B2
:102B700077FEF86123E0BB6974331846FFF739FF2D
:102B8000FB699B68BB60FB691B69FB60FB690022FA
:102B90009A60FB69DB69002B08D0FB69DB69FA6985
:102BA000106AFA69D28A07F108019847BB69743341
:102BB0001846FFF755FEF8610020FFF743FFFB6959
:102BC000002BD8D1FFF7D4FE7861BB695B683B610D
:102BD0007869FFF7DEFE3B69002B1FD03B699B68DD
:102BE000002B1BD03B691A693B69DB689A4215D3FD
:102BF0003B699B68BB603B691B69FB603B690022CA
:102C00009A603B69DB69002B08D03B69DB693A6954
:102C1000106A3A69D28A07F10801984700BF203745
:102C2000BD4680BD80B586B000AFF860B960134680
:102C3000FB80FB68002BFCD0BB68002BFCD0FB6842
:102C40007B617B6964331846FFF70AFE38613B6994
:102C5000002B22D07B6964331846FFF7CAFE7869DF
:102C6000FFF70EFFBB685A683B691A613B69FA8837
:102C7000DA823B691B7D012B09D17B697433396989
:102C80001846FFF7A8FE7869FFF765FF05E03B6986
:102C900000229A600020FFF7D5FE00BF1837BD461E
:102CA00080BD90B58BB000AFF860B9601346FB8073
:102CB00000237B62FB68002BFCD0BB68002BFCD0A0
:102CC000FB68BB6143F22353FB80FFF751FE786141
:102CD000BB69DA6DBB685B681A44BB699B6D9A423D
:102CE00039D300233B6230E0BB681A683B6A1A4460
:102CF000BB69596DBB69DB6D5C1CB869C4650B446D
:102D000012781A70BB69DA6DBB699B6D9A4202D367
:102D1000BB690022DA65BB69DA6DBB691B6E9A423A
:102D200010D143F22653FB80BB691B6E5A1CBB6952
:102D30001A66BB691A6EBB699B6D9A4202D3BB6966
:102D400000221A663B6A01333B62BB685B683A6AE1
:102D50009A42C9D312E0BB695A6DBB69DB6DD018CA
:102D6000BB681968BB685B681A46FDF7B3FCBB69B2
:102D7000DA6DBB685B681A44BB69DA65BB69DA6DFA
:102D8000BB699B6D1A44BB691B6ED31A7B62BB691E
:102D90009A6D7B6AB3FBF2F101FB02F29B1A7B6234
:102DA000BB695B68002B64D0BB695B689B68002BC8
:102DB0005FD0BB695B68DA68BB695B681B699A4274
:102DC0003ED9BB695B68DA68BB695B681B69D31A6B
:102DD0003B610023FB6123E0BB695A6DBB691B6E3D
:102DE0001A44BB695B689968BB695B681B690B44E3
:102DF00012781A70BB691B6E5A1CBB691A66BB69D4
:102E00005B681A6901321A61BB691A6EBB699B6DF6
:102E10009A4202D3BB6900221A66FB690133FB6147
:102E20003A697B6A934228BF1346FA699A42D3D320
:102E30003A697B6A934228BF13467A6AD31A7B6247
:102E4000BB695B68DA68BB695B681B699A4210D82A
:102E5000BB695B681B7D002B04D1BB695B680022EA
:102E60009A6006E0BB695B680022DA82B869FFF706
:102E700072FEBB6959687B6A0022B869FFF733FEAE
:102E80007B6A002B17D0BB6800221A60BB687A6A85
:102E90005A60BB695B68002B0DD0BB695B68DB695E
:102EA000002B08D0BB695B68DB69BA695268106A9D
:102EB000FA88B9689847BB695B68002B0CD0BB697E
:102EC0009A6D7B6AD31A013B7B62BB6959687B6A46
:102ED0000022B869FFF707FE7869FFF75AFD00BFC7
:102EE0002C37BD4690BD80B483B000AF786000BF82
:102EF0000C37BD465DF8047B7047000080B588B094
:102F000000AFF860B9607A60FB700023BB830023D8
:102F1000FB77FB68002BFCD0BB68002BFCD07B68E8
:102F2000002BFCD0FB68BB61BB699B697B617B6943
:102F3000002BFCD0BB695B6A394A9342FAD1FB781B
:102F4000012B03D1BB69DB69002BF8D0FFF710FD23
:102F50003861BB699B68002B05D03869FFF719FD04
:102F600043F2225358E0BB69BA689A60BB697A6839
:102F7000DA60BB6900221A61BB69FA781A757B694D
:102F800064331846FFF76CFC0346002B01D1012384
:102F9000FB777B696433B9691846FFF71CFD386914
:102FA000FFF7F7FCFB7F002B1FD07B699B78022B80
:102FB00018D17B690C33184600F09CFE0346BB8396
:102FC000BB8B43F2275293420CD17B696433184682
:102FD000FFF70FFDBB6900229A60BB690022DA602F
:102FE000BB8B19E07869FFF74BFDFB78002B12D102
:102FF0000BE0FFF7DEFC0346002B03D07869FFF7F8
:1030000091FD02E00120FFF76EFFBB69DA68BB6942
:103010001B699A42EDD8002318462037BD4680BD73
:103020005457BBAA80B584B000AF7860396043F2D2
:103030002153FB813B68002BFCD07B68002BFCD02C
:1030400000BF7B68BB603B681B68002BFBD03B6804
:103050005B68002BFBD0C4220021B86809F004FA99
:103060003B685A89BB681A803B681A7ABB689A70B9
:103070003B681A68BB685A653B685A68BB689A65C2
:103080003B681B7A022B23D1BB6803F10C023B681F
:10309000DB681946104600F00FFD0346FB81FB89F3
:1030A000002B17D1BB680C33BA680D49184600F0E5
:1030B000F1FD0346FB81FB89002B0BD1BB680C3370
:1030C000BA680849184600F0FDFD0346FB8101E09F
:1030D00000BF00E000BFFB8918461037BD4680BD29
:1030E000252C0000A32C000080B586B000AF7860CE
:1030F00039607B68002BFCD03B68002BFCD000BF04
:103100007B687B613B683B61FFF732FCF8607B6961
:103110009B685A1C7B699A60F868FFF73AFC7B69E8
:103120001B8848F64172934204D13B697A699A61DF
:1031300000230BE02C220021386809F095F93B6947
:103140007A699A613B69034A5A6200231846183724
:10315000BD4680BD5457BBAA80B586B000AF78602D
:1031600039600023FB827B68002BFCD03B68002B7E
:10317000FCD000BF7B683B613B68FB603B691B8800
:1031800048F64172934204D1FB683A699A61002380
:103190001CE0FFF7EDFBB8603B695B68002B03D0D8
:1031A00043F22253FB820DE03B69FA685A602C22FD
:1031B0000021386809F058F9FB683A699A61FB68A0
:1031C000044A5A62B868FFF7E4FBFB8A18461837CE
:1031D000BD4680BD4452AABB80B584B000AFF86044
:1031E000B9607A6001237A68B968F868FFF786FEEB
:1031F000034618461037BD4680BD000080B487B036
:1032000000AFF860B9607A60FB68002BFCD0FB6807
:103210007B617B695B6A084A9342FAD17B697A6871
:103220001A627B69BA68DA61002318461C37BD460A
:103230005DF8047B704700BF5457BBAA80B487B0C9
:1032400000AFF860B9607A60FB68002BFCD0FB68C7
:103250007B617B695B6A084A9342FAD17B697A6831
:103260001A627B69BA68DA61002318461C37BD46CA
:103270005DF8047B704700BF4452AABB80B483B0A2
:1032800000AF0346FB80B7F90630002B0BDBFB8851
:1032900003F01F020749B7F906305B09012000FA65
:1032A00002F241F8232000BF0C37BD465DF8047BD5
:1032B000704700BF00E100E080B483B000AF034678
:1032C0003960FB80B7F90630002B0ADB3B68DAB2C5
:1032D0000C49B7F906301201D2B20B4483F800232F
:1032E0000AE03B68DAB20849FB8803F00F03043BAD
:1032F0001201D2B20B441A7600BF0C37BD465DF8FE
:10330000047B704700E100E000ED00E080B584B090
:1033100000AF0346FB800023FB60B7F9063013F1D2
:10332000800F02D10123FB6004E0B7F90630184694
:10333000FFF7A4FFFB6818461037BD4680BD80B478
:1033400083B000AFEFF310833B603B687B6072B6E5
:1033500000BF7B6818460C37BD465DF8047B70479C
:1033600080B485B000AF78607B68FB60FB6883F356
:10337000108800BF00BF1437BD465DF8047B70475E
:1033800080B483B000AF7860396009E07B685B6827
:103390003A689A4201D17B6806E07B681B687B60D3
:1033A0007B68002BF2D1002318460C37BD465DF830
:1033B000047B704780B483B000AF7860396009E067
:1033C0007B689B683A689A4201D17B6806E07B681B
:1033D0001B687B607B68002BF2D1002318460C37FA
:1033E000BD465DF8047B704780B584B000AF78605F
:1033F00039607B681B68FB60FFF7A1FFB860FB6862
:10340000002B0FD17B683A681A6012E0FA683B68BB
:103410009A4204D1B868FFF7A3FF012310E0FB68CC
:103420001B68FB60FB681B68002BEFD1FB683A68E8
:103430001A603B6800221A60B868FFF791FF00230A
:1034400018461037BD4680BD80B58EB000AFF8601D
:10345000B9607A609A4BFB62052387F83730994B45
:103460001B68F9681846FFF7A5FFB862BB6A002B16
:1034700001D10523D3E17B687B627B683B62BB683B
:10348000DBB2013B0B2B00F2BD8101A252F823F00D
:10349000C13400004B350000A535000005380000A0
:1034A00005380000F53500004736000005380000FB
:1034B00089360000A1360000D9360000053800002A
:1034C000BB6A93F82C30DBB2012B40F09D813B6A44
:1034D0005B68002B15D03B6A5B687B4A5288B3FB64
:1034E000F2F101FB02F29B1A002B0AD10023002209
:1034F0000221F86804F0D2FB034687F8373000BF9A
:1035000082E1BB6A00221A77BB6ADB68002B00F0FD
:103510007B810023BB86BB6A5B693B61BB6A9B699D
:103520007B61002387F837303B6A5B68B3F1FF3F6C
:1035300002D143F22453BB86BB6ADB68BA6A1069C6
:10354000BA8E07F1100198475EE1BB6A002283F84A
:103550002820BB6A93F82E30DBB2012B40F0568155
:1035600000237B86BB6A1B6A002B00F04F813B6AFD
:103570001B683B613B6A5B687B61002387F83730DF
:103580007B69B3F1FF3F04D100237B6143F22453F5
:103590007B86BB6A1B6ABA6A506A7A8E07F1100191
:1035A000984733E1FB68002283F84F20BB6A93F809
:1035B0002E30DBB2002B19D0BB6A5B7FDBB2002B55
:1035C00014D0BB6A00225A77BB6A01221A77BB6A01
:1035D0009868BB6A5A69BB6A9B69022104F05EFB6A
:1035E0000346002B02D0BB6A00221A77002387F81B
:1035F000373012E17B6A5B89012B0FD17B6A1B7B21
:10360000012B07D17B6A1B68304A1A607B6A5B68B2
:1036100002221A60002387F83730F9E07B6A5B8961
:10362000022B40F0F5807B6A1B7B012B07D17B6A64
:103630001B68274A1A607B6A5B6802221A600023B3
:1036400087F83730E4E07B6A5B89012B0BD17B6A1A
:103650001B681E4A1A607B6A5B6802221A6000239C
:1036600087F83730D6E07B6A5B89022B40F0D28046
:103670007B6A1B68164A1A607B6A5B6802221A60C2
:10368000002387F83730C5E07B6A1B68114A1A604F
:103690007B6A5B6807221A60002387F83730BCE03A
:1036A0007B6A1B7B012B07D17B6A1B68094A1A6066
:1036B0007B6A5B6807221A60002387F83730ACE02A
:1036C000D49F0020C89F00202C000020CC9F002009
:1036D000D09F002004000020002387F837307B6A49
:1036E0005B89DAB2504B9A73FB6A9B7B03F002034F
:1036F000002B07D0FB6A1B8A43F002039AB2FB6AD5
:103700001A8206E0FB6A1B8A23F002039AB2FB6A64
:103710001A82FB6A9B7B03F00103002B07D0FB6A34
:103720001B8A43F001039AB2FB6A1A8206E0FB6A25
:103730001B8A23F001039AB2FB6A1A82FB6A9B7B05
:1037400003F00103DAB2FB6A9A72FB6AA1221A70D3
:10375000FB6A20225A70FB6A00229A70FB6A0022E0
:10376000DA70FB6A00221A71FB6A00225A71FB6A46
:1037700002229A71FB6A0022DA717B6A1B89DAB233
:10378000FB6A1A71FB6A0833FB61FB6A1B8ADAB2B7
:10379000FB691A70FB6A1B8A1B0A9AB2FB69013328
:1037A000D2B21A700A23BB61FB6893F84F30002B2A
:1037B0000CD1FA6ABB690121F86804F06FFA03467C
:1037C00087F83730FB68012283F84F20FB6A9B7B28
:1037D00003F00103002B0AD0BB6A93F82C30DBB254
:1037E000012B19D1BB6A012283F82E2014E0BB6A99
:1037F00093F82C30DBB2012B0ED1BB6A002283F888
:103800002E2009E000BF08E000BF06E000BF04E092
:1038100000BF02E000BF00E000BF97F83730184655
:103820003837BD4680BD00BFD49F002080B58AB028
:1038300000AFF860B9607A60052387F827307B68AD
:103840003B627B68FB61664B1B68F9681846FFF7B3
:1038500097FDB861BB69002B01D10523BBE0BB68B4
:10386000DBB2013B152B00F2A78001A252F823F036
:10387000C9380000B9390000B9390000B939000071
:10388000B9390000B9390000B9390000B939000070
:103890000B39000041390000773900008D390000F4
:1038A000A3390000B9390000B9390000B939000066
:1038B000B9390000B9390000B9390000B939000040
:1038C000B9390000B9390000BB69002283F82C2007
:1038D000BB69002283F82E20002387F82730BB69BC
:1038E00093F83220BB692D331946104606F072FE5C
:1038F00003467B757B7D002B60D1BB6993F82D302F
:103900001946F86800F0ACFA58E07B68002B57D0F5
:10391000BB69012283F82C20FB691A78BB6983F804
:103920002F20FB691B78012B4AD12E4B5B881A464E
:103930002D49B86900F050F9002387F827303FE09F
:10394000BB6993F82C30DBB2002B3BD03B6A1B8861
:103950001B0A9BB2FB753B6A1B88BB75FB7D012B69
:1039600030D8FB7DBA691344BA7D83F83020002338
:1039700087F8273026E07B68002B25D07968F86827
:1039800000F0E0F9034687F827301DE07B68002B44
:103990001CD07968F86800F0E9F9034687F8273009
:1039A00014E07B68002B13D07968F86800F0F8F910
:1039B000034687F827300BE000BF0AE000BF08E0AD
:1039C00000BF06E000BF04E000BF02E000BF00E06F
:1039D00000BF97F8273018462837BD4680BD00BF86
:1039E000C89F00202C000020E89F002080B582B0F6
:1039F00000AF0C4B1B687B600CE07B6893F83230A7
:103A0000032B04D17B685B68184606F01BFB7B68C0
:103A10001B687B607B68002BEFD100BF00BF0837BD
:103A2000BD4680BDC89F002080B582B000AF0C4B62
:103A30001B687B600CE07B6893F83230022B04D16A
:103A40007B685B68184606F0FDFA7B681B687B6044
:103A50007B68002BEFD100BF00BF0837BD4680BD9B
:103A6000C89F002080B584B000AF7860114B1B6800
:103A7000FB607B6893F83230023B5B0010333B44C1
:103A800033F9043CDAB27B6883F833207B6893F81F
:103A900033301BB203211846FFF70EFC7B6893F806
:103AA00033301BB21846FFF731FC00BF1037BD465C
:103AB00080BD00BF64C8000080B586B000AF7860EC
:103AC00039603B68002BFCD07B68002BFCD000BF2A
:103AD0003B687B617B683B613B69002283F82D205A
:103AE0007B691A783B6983F832203B6993F832008E
:103AF0003B6904331A46134906F0E0FC0346FB73A6
:103B0000FB7B002B02D043F2215316E00D4B1B68C8
:103B10005A683B699A6039690B48FFF765FC386958
:103B2000FFF7A0FF094941F2883000F07FFE3B69B2
:103B30005B68184604F040FC002318461837BD4661
:103B400080BD00BF18000020C89F00200046C3238E
:103B500080B586B000AFF860B9607A6000237B6101
:103B6000FB68002BFCD0FB683B613B691B7FDBB231
:103B7000002B02D043F222532AE03B6901221A773C
:103B80003B6900225A773B69BA685A613B697A6897
:103B90009A613B6993F82C30DBB2002B01D00123F2
:103BA0007B617B69002B0FD03B6998687B68BA68A2
:103BB000022104F073F80346002B08D03B69002271
:103BC0001A7743F2215303E03B6901225A7700231D
:103BD00018461837BD4680BD80B588B000AFF86084
:103BE000B9607A60FB68002BFCD0FB687B617B6965
:103BF00093F82C30DBB2002B02D143F2215341E089
:103C0000FFF79DFB38617B6993F82830DBB2002B0E
:103C100005D03869FFF7A4FB43F2225332E07B69F9
:103C2000012283F828203869FFF79AFB174B5B883D
:103C30001A467B68934206D27B69002283F82820CB
:103C400043F221531EE0BB68002B05D1104BFB61F2
:103C50000E4B5B88BB6103E0BB68FB617B68BB61AB
:103C60007B699868BB69FA69032104F069F8034627
:103C7000002B06D07B69002283F8282043F22153D1
:103C800000E0002318462037BD4680BD2C000020F0
:103C9000E89F002080B487B000AFF860B9607A6018
:103CA000FB68002BFCD0FB687B617B69BA68DA603B
:103CB0007B697A681A61002318461C37BD465DF897
:103CC000047B704780B487B000AFF860B9607A6059
:103CD000FB68002BFCD0FB687B617B69BA681A62C9
:103CE0007B697A685A62002318461C37BD465DF826
:103CF000047B704780B483B000AF7860002318461F
:103D00000C37BD465DF8047B704780B584B000AFCA
:103D100078607B68002BFCD07B68FB60FB6893F8C5
:103D20003230022B04D0FB6893F83230032B04D1DD
:103D3000FB685B68184606F085F900BF1037BD4682
:103D400080BD000080B483B000AF786039603B680C
:103D5000054A1A603B6812225A60002318460C3745
:103D6000BD465DF8047B70478000002080B483B0BE
:103D700000AF786039603B681B7A002B07D13B6845
:103D8000064A1A603B6843225A60002300E005237C
:103D900018460C37BD465DF8047B70479400002040
:103DA00080B485B000AF786039603B689B7A002BA7
:103DB00008D12A4B1A683B681A60284B5A683B683E
:103DC0005A6044E00023FB730323BB7317E03B6896
:103DD0001989224B9868FA7B13465B0013449B00B9
:103DE00003441B89994207D13B689B7A022B0AD86E
:103DF0003B689B7ABB7306E0FB7B0133FB73FB7B69
:103E0000002BE4D000E000BFBB7B032B01D10523D6
:103E10001EE0124B9968FA7B13465B0013449B002B
:103E20000B441A68BB7B9B0013441A683B681A60FA
:103E30000A4B9968FA7B13465B0013449B000B44C2
:103E40005A68BB7B9B0013441A683B685A60002386
:103E500018461437BD465DF8047B704754010020B6
:103E600080B487B000AF78600B46FB707F4B7B61FE
:103E70007F4BBB607DE07B695B78052B73D1FB7862
:103E8000022B38D17B699B785BB2002B0FDA7B6900
:103E90009B7803F00F03012B09D17B6907229A71EC
:103EA0007B6900225A717B6910221A715BE07B6981
:103EB0009B785BB2002B0CDA7B699B7803F00F03D5
:103EC000022B06D17B6902225A717B6900221A718A
:103ED00049E07B699B785BB2002B44DB7B699B7874
:103EE00003F00F03032B3ED17B6902225A717B69D9
:103EF00000221A7137E07B699B785BB2002B0FDAE6
:103F00007B699B7803F00F03012B09D17B690822A1
:103F10009A717B6900225A717B6910221A7122E022
:103F20007B699B785BB2002B0CDA7B699B7803F092
:103F30000F03022B06D17B6900225A717B69402254
:103F40001A7110E07B699B785BB2002B0BDB7B69FD
:103F50009B7803F00F03032B05D17B6900225A7174
:103F60007B6940221A717B691B781A467B6913446E
:103F70007B617A69BB689A42FFF47DAF00233B61A5
:103F80001AE0FB78022B0AD13A493A6913465B00E2
:103F900013445B000B44023310221A8009E03549B8
:103FA0003A6913465B0013445B000B440233102252
:103FB0001A803B6901333B613B69002BE1DD002343
:103FC000FB6048E0FB78022B22D12B49FA681346AC
:103FD0005B0013445B000B441B785BB2002B0BDAD5
:103FE0002549FA6813465B0013445B000B44023317
:103FF0004FF400721A802BE01F49FA6813465B00E9
:1040000013445B000B4402334FF400721A801FE02C
:104010001949FA6813465B0013445B000B441B7894
:104020005BB2002B0ADA1449FA6813465B001344AA
:104030005B000B44023340221A8009E00E49FA6803
:1040400013465B0013445B000B44023340221A808A
:10405000FB680133FB60FB68012BB3DD00231846CE
:104060001C37BD465DF8047B704700BF94000020FC
:10407000D6000020240000202C00002080B500AFD6
:10408000464BD3F88830454A43F47003C2F8883071
:10409000434B1B899BB2424A23F001039BB213811D
:1040A000404B1B899BB23F4A23F001039BB2138113
:1040B0003B4B1B889BB203F00403002B07D0384B0B
:1040C0001B889BB2364A23F004039BB21380354B06
:1040D0001B889BB203F00403002B07D0314B1B88D5
:1040E0009BB2304A23F004039BB213802E4B1B6813
:1040F00003F40053002B03D02B4B2C4A5A6007E0EB
:10410000294B4CF220525A60274B4DF628125A6028
:10411000254B4FF6FF729A60234B1B6823F0A003D8
:10412000214A43F020031360214B1B6803F0010375
:10413000002B05D01E4B1B681D4A23F001031360A2
:10414000164B5B6903F40033B3F5003F22D0134BE9
:104150005B6903F40033002B1BD1BFF34F8F00BF0B
:10416000BFF36F8F00BF0D4B0022C3F85022BFF387
:104170004F8F00BFBFF36F8F00BF084B5B69074ACB
:1041800043F400335361BFF34F8F00BFBFF36F8F12
:1041900000E000BF00F014F900BF80BD00ED00E0BA
:1041A00000800B4000000D4000C00B4020C528D906
:1041B00010E000E02DE9F04385B000AF7A4E76695B
:1041C00006F00076002E47D0774B9B6903F44053EE
:1041D000B3F5005F27D0B3F5005F2FD8002B03D0D5
:1041E000B3F5805F1CD029E0704B1B6903F480336A
:1041F000002B0AD06D4B1B6903F44043002B01D107
:104200006B4B00E00023FB601BE0684B1B6903F075
:104210000203002B01D0674B00E0674BFB6010E00E
:10422000634BFB600DE0614B1B6B03F44043002BC1
:1042300001D15F4B00E00023FB6002E00023FB6044
:1042400000BF594B5B69DB0E03F007030133FA68CB
:10425000B2FBF3F3FB6097E0544E366806F4803609
:10426000002E0AD0514E366806F44046002E01D189
:104270004F4E00E00026BE6008E04C4E366806F067
:104280007F064B4C04FB06F67608BE60474E366B45
:1042900006F48036002E0AD0444E366B06F44046B3
:1042A000002E01D1424E00E000267E6009E03F4E24
:1042B000366B06F00106002E01D03E4E00E03E4E69
:1042C0007E603A4E366D4FF0000C32466346384EF3
:1042D00006FB03FC002602FB06F66644344CA2FBF8
:1042E000040173181946314B1B6E00229846914603
:1042F00042464B46FCF73EFA02460B467B681344A7
:104300007B60294B9B6903F44023B3F5402F2ED0EB
:10431000B3F5402F35D8B3F5002F1AD0B3F5002FE1
:104320002FD8002B03D0B3F5802F03D029E07B6872
:10433000FB6029E01D4BD3F800311B0C03F03F0359
:104340007A68B2FBF3F21346DB0013445B00FB60B8
:104350001AE0164BD3F8003103F03F037A68B2FB42
:10436000F3F21346DB0013445B00FB600CE00E4BE2
:104370001B6903F007030133BA68B2FBF3F3FB6078
:1043800002E00023FB6000BF074B5B699B0A03F060
:1043900007030133FA68B2FBF3F3084A136000BF66
:1043A0001437BD46BDE8F08300C00F4000800D40CB
:1043B00000366E0100A4781F00389C1C64010020A8
:1043C00080B400AF00BFBD465DF8047B70470000BD
:1043D00080B582B000AF0346FB71FB7983F0010327
:1043E000DBB2002B05D1144B144AC121144806F04E
:1043F000D7FF144B4FF08042C3F8582100BF114B38
:10440000D3F8703203F48033002BF8D00D4B4FF407
:104410008032C3F8542100BF0A4BD3F8503103F463
:104420000043002BF8D0074B4FF48032C3F85821DB
:1044300000BF0837BD4680BD68C8000014CF00002B
:1044400078C8000000800D4080B483B000AF034600
:10445000FB71FB79002B04D1074B1022C3F87422A7
:1044600003E0054B1022C3F8782200BF0C37BD468D
:104470005DF8047B704700BF00800D4080B400AF42
:10448000064BD3F87032054A43F00103C2F870328C
:1044900000BFBD465DF8047B704700BF00800D4043
:1044A00080B485B000AF03463960FB71164BD3F87A
:1044B0008030154A43F00303C2F88030134BD3F821
:1044C0004031124A43F00203C2F840310023FB603E
:1044D00003E000BFFB680133FB60FB680C4A9342BA
:1044E000F7D90C4BD3F820310B4A1A40094941F255
:1044F00001731343C1F82031012318461437BD4618
:104500005DF8047B704700BF00C00F4000002E40E4
:104510007F1A060000800D40FEE0FFFF80B582B0EC
:1045200000AF03463960FB71144B1B6903F4005361
:10453000002B06D0114B1B69104A43F04003136156
:1045400002E00F4800F0A2F80E4B1B6B0D4A23F05F
:10455000004313630B4B1B6B0A4A23F08043136326
:10456000084B00221A60074B1B6B064A43F4C61324
:104570001363012318460837BD4680BD00800D40F7
:104580002CCF000000900D4080B483B000AF786065
:10459000154B1B6823F4E0327B681B799B039BB2AD
:1045A0001343114A43F4803313600F4B1A680F4BC7
:1045B00013407A68126802F07F0213430A4A43F4F8
:1045C0000053136000BF084B1B68002BFBDA064B3F
:1045D0001B68054A23F48033136000BF0C37BD46C7
:1045E0005DF8047B704700BF00800D4080CFFFFF67
:1045F00080B483B000AF7860224B1B6B23F4E032B1
:104600007B681B7B9B039BB213431E4A43F480339E
:1046100013631C4B1A6B1C4B13407A68127802F020
:1046200001021343174A43F4005313637B685B682A
:10463000144A23F0404313657B689B68114A23F0BA
:10464000404313667B685B8AC3F30E027B681B7C66
:10465000DB039BB21A437B68DB891B0409491343C4
:104660000B6400BF074B1B6B002BFBDA054B1B6B6E
:10467000044A23F48033136300BF0C37BD465DF852
:10468000047B704700800D40FECFFFFF80B483B0F5
:1046900000AF7860154B1B6923F4E0327B685B78D0
:1046A0009B039BB21343114A43F4803313610F4BB6
:1046B0001A690F4B13407A681278520002F0020216
:1046C00013430A4A43F44153136100BF074B1B696C
:1046D000002BFBDA054B1B69044A23F4803313617A
:1046E00000BF0C37BD465DF8047B704700800D406D
:1046F000BDCFFFFF80B400AF034B00221A6200BFA2
:10470000BD465DF8047B704700800D4080B400AF6B
:10471000044B4FF480521A6700BFBD465DF8047B1E
:10472000704700BF00800D4080B400AF044B4FF4D1
:104730008052C3F8E02000BFBD465DF8047B70479F
:1047400000800D4080B485B000AF03460A46FB717F
:104750001346BB71FB79FB60124BD3F80021FB6859
:10476000DB00BF2101FA03F3DB431340BB60FB68AE
:10477000DB0080229A400B49BB681343C1F800312B
:10478000BB7903F03F02FB68DB009A400549BB6838
:104790001343C1F8003100BF1437BD465DF8047BF8
:1047A000704700BF00800D4080B485B000AF034665
:1047B0000A46FB711346BB71FB79FB60124BD3F8C1
:1047C000F020FB68DB00BF2101FA03F3DB43134059
:1047D000BB60FB68DB0080229A400B49BB68134337
:1047E000C1F8F030BB7903F03F02FB68DB009A4070
:1047F0000549BB681343C1F8F03000BF1437BD460C
:104800005DF8047B704700BF00800D4080B483B02A
:1048100000AF78607B681846A0F101000028FBD14A
:1048200000BF0C37BD465DF8047B70472DE9B04FE3
:1048300084B000AF786039607968002939D0796830
:10484000002088468146396800200A46034602FB5C
:1048500009F008FB03F10144A8FB02454B191D4672
:10486000164A4FF0000320462946FBF783FF024615
:104870000B46C7E90223D7E90223012B05D3104BCE
:10488000104AD521104806F08BFDD7E902014FF000
:1048900003024FF00003FBF76DFF02460B4612EBDD
:1048A000020A43EB030BC7E902ABBB681846FFF7EC
:1048B000ADFF00BF1037BD46BDE8B08F40420F00CE
:1048C00080C9000030CF000030C9000080B48BB038
:1048D00000AFF860B9607A60FB687B617B6953E880
:1048E000003F3B613B697B62BB68DA437B6A1340F4
:1048F0007A6813437B627B6A3B62FB68FB61F96900
:104900003A6A41E80023BB61BB69002BE4D100BFD8
:1049100000BF2C37BD465DF8047B704780B586B07C
:1049200000AF03460A46FB8013467B71B7F9063099
:104930001B0A7B61FB8803F01F033B617B69072B2C
:1049400006D90E4B0E4A40F2DE510E4806F028FD05
:104950007B699A000C4B1344FB6003223B6902FA0B
:1049600003F17A793B6902FA03F31A46F868FFF714
:10497000ADFF00BF1837BD4680BD00BF94C9000021
:1049800090CF0000A4C9000068C00F4080B582B07D
:1049900000AF0346FB80B7F9063003211846FFF746
:1049A000BDFF00BF0837BD4680BD80B584B000AFF5
:1049B000F860B9601346FB71FB791A46B968F8686C
:1049C00000F0ACF800BF1037BD4680BD80B584B0A4
:1049D00000AF78600023FB6009E00E4AFB6852F8E4
:1049E00023307A689A4206D0FB680133FB60FB688B
:1049F0000A2BF2D900E000BFFB680A2B05D9064B51
:104A0000064A3C21064806F0CBFCFB6818461037E6
:104A1000BD4680BD44CF0000F0C900007CCF00003F
:104A200014CA000080B586B000AFF860B9607A6043
:104A3000F868FFF7CBFF78617B69052B0DD8214A19
:104A40007B6932F91330B3F1FF3F06D01D4A7B6911
:104A500032F913301846FFF799FFFB685A690121B4
:104A6000BB6801FA03F3DB431A40FB685A617B68B9
:104A70001B78002B0AD1FB685A680121BB6801FA38
:104A800003F3DB431A40FB685A600FE07B685B78F6
:104A90001A46B968F86800F017F8FB685A680121EF
:104AA000BB6801FA03F31A43FB685A607B689B7882
:104AB0001A46B968F868FFF778FF00BF1837BD4697
:104AC00080BD00BF70CF000080B584B000AFF8603B
:104AD000B9601346FB71BB681F2B05D90C4B0D4AFF
:104AE00075210D4806F05CFCFB79002B06D10122F4
:104AF000BB689A40FB68C3F8882005E00122BB68C8
:104B00009A40FB68C3F8842000BF1037BD4680BDC3
:104B100060CA0000A4CF000014CA000080B487B0AF
:104B200000AFF860B9601346FB71BB683B61FB687E
:104B3000DA690121BB6801FA03F3DB431A40FB6821
:104B4000DA61BB680F2B03D8FB680C337B6105E08F
:104B5000FB6810337B613B69103B3B61FB79013B98
:104B6000042B52D801A252F823F000BF814B000061
:104B7000994B0000BD4B0000E14B0000F74B0000DB
:104B80007B691A683B695B00032101FA03F3DB438D
:104B90001A407B691A6039E07B691A683B695B00DF
:104BA000032101FA03F3DB431A403B695B00012157
:104BB00001FA03F31A437B691A6027E07B691A68DC
:104BC0003B695B00032101FA03F3DB431A403B69B5
:104BD0005B00022101FA03F31A437B691A6015E0B6
:104BE0007B691A683B695B00032101FA03F31A43EE
:104BF0007B691A600AE0FB68DA690121BB6801FA87
:104C000003F31A43FB68DA6100E000BF00BF1C3702
:104C1000BD465DF8047B704780B48BB000AFF86090
:104C2000B9607A60FB687B617B6953E8003F3B6158
:104C30003B697B62BB68DA437B6A13407A68134343
:104C40007B627B6A3B62FB68FB61F9693A6A41E817
:104C50000023BB61BB69002BE4D100BF00BF2C3730
:104C6000BD465DF8047B704780B586B000AF034653
:104C70000A46FB8013467B71B7F906301B0A7B613D
:104C8000FB8803F01F033B617B69072B06D90E4BA2
:104C90000E4A40F2DE510E4806F082FB7B699A0014
:104CA0000C4B1344FB6003223B6902FA03F17A794F
:104CB0003B6902FA03F31A46F868FFF7ADFF00BF3D
:104CC0001837BD4680BD00BF6CCA000000D0000090
:104CD0007CCA000068C00F4080B582B000AF0346B8
:104CE000FB80B7F9063003211846FFF7BDFF00BF70
:104CF0000837BD4680BD80B483B000AF78607B6864
:104D000002221A617B6800221A6100BF0C37BD467F
:104D10005DF8047B704780B483B000AF78600B46C9
:104D2000FB707B681B6923F00102FB781A437B68E8
:104D30001A6100BF0C37BD465DF8047B704780B434
:104D400083B000AF78607B685B6918460C37BD465E
:104D50005DF8047B704780B483B000AF7860396041
:104D60007B683A685A6100BF0C37BD465DF8047B2A
:104D7000704780B485B000AFF860B9607A60BB68F6
:104D800003F003027B681B0403F440331A43FB68FF
:104D90009A6500BF1437BD465DF8047B704780B448
:104DA00085B000AFF860B9607A607B68002B05D0F1
:104DB000FB68DB6D03F007027B681A60BB68002BA1
:104DC00006D0FB68DB6D1B0C03F00702BB681A60A2
:104DD00000BF1437BD465DF8047B704780B483B0D4
:104DE00000AF78600B46FB707B68D3F8103123F07E
:104DF0000102FB781A437B68C3F8102100BF0C370F
:104E0000BD465DF8047B704780B584B000AF786024
:104E10000023FB6009E00E4AFB6852F823307A68F1
:104E20009A4206D0FB680133FB60FB68042BF2D981
:104E300000E000BFFB68042B05D9064B064AE921B8
:104E4000064806F0ADFAFB6818461037BD4680BD2F
:104E5000B4CF0000C8CA0000D4CF0000ECCA0000E4
:104E600080B588B000AFF860B9607A603B60FB68DD
:104E7000002B05D11E4B1F4AF8211F4806F090FA5F
:104E80000123FB6105E0FB695B00FB61BB6A013B41
:104E9000BB62BB6A002BF6D1FA68FB69B2FBF3F385
:104EA000164AA2FB03239B09154AB2FBF3F37B616D
:104EB000BA6813469B0013445B001A467B69B2FB39
:104EC000F3F305330F4AA2FB0323DB08BB61BA6986
:104ED0007B689A4201D27B68BB61BA693B689A429F
:104EE00001D93B68BB61BB6918462037BD4680BD10
:104EF00038CB0000E8CF0000ECCA0000D34D6210B0
:104F000040420F00CDCCCCCC80B584B000AF7860EF
:104F100039600023FB603B6803F470533B603B68DF
:104F2000002B3AD03B6803F40053002B03D040F22F
:104F30008A33FB6019E03B6803F40063002B03D065
:104F400040F28933FB6010E03B6803F48063002B80
:104F500003D040F28633FB6007E03B6803F48053E4
:104F6000002B02D040F28733FB6039687868FFF786
:104F7000F2FE7B685B6A03F40073002B07D0FB68CA
:104F800040F28632934202D10023FB6005E07B6849
:104F90001B6943F440727B681A61FB68184610373E
:104FA000BD4680BD80B586B000AF786000237B61D0
:104FB00004233B6107F108031A4600217868FFF7D4
:104FC000EEFEBB683A69D31ABB607868FFF7B7FE9C
:104FD000F860F9687868FFF797FF78617B69002BC4
:104FE00003D1BB68002BE5D000E000BF7B69184609
:104FF0001837BD4680BD80B584B000AF786000230F
:10500000FB607868FFF79BFEB860BB6803F0007335
:10501000002B07D0BB6803F08073002B02D14FF444
:105020006173FB60FB6818461037BD4680BD000009
:1050300080B582B000AF78601C220021786807F04C
:1050400013FA7B6801221A707B6800229A707B68D1
:1050500001225A707B680022DA707B6800221A7184
:105060007B680D4A9A607B680022DA607B680022C8
:105070001A617B6800221A757B6800225A757B686A
:1050800000229A757B680022DA757B6801221A7605
:1050900000BF0837BD4680BDA086010080B58CB03A
:1050A00002AFF860B9607A60F868FFF7ADFE386269
:1050B0006C4A3B6A32F913301846FFF70DFEF86868
:1050C000FFF719FEBB689B78DB0003F00802BB68A2
:1050D0005B7883F00103DBB29B0003F004031A4307
:1050E000FB681A61FB681B6AFB61FB6923F007031D
:1050F000FB61BB689B7D1A46BB681B7E5B0003F0AF
:1051000002031A43BB68DB7D9B0003F004031343D7
:10511000FA691343FB61FB68FA691A62FB685B6A10
:10512000FB61FA69504B1340FB61BB681B791B069E
:1051300003F0E063FA691343FB61BB68DB785B0251
:1051400003F40073FA691343FB61FB68FA695A625E
:1051500000220021F868FFF70CFEFB689B6A7B6267
:10516000BB681B7D002B15D0BB681B7D1946002337
:1051700000930F2301227868FFF772FEB8617B6A03
:1051800023F070637B62BB691B0603F070637A6A6D
:1051900013437B62BB685B7D002B15D0BB685B7DD6
:1051A0001946002300930F2301227868FFF758FE69
:1051B000B8617B6A23F470237B62BB691B0403F430
:1051C00070237A6A13437B62FB687A6A9A62BB68CF
:1051D0009B681A467968F86800F04EF8FB685B6ACD
:1051E00003F007037B61BB68DB68002B14D0BB684E
:1051F000D9687B69009340F6FF7301227868FFF756
:105200002FFEB861FB689A6A184B1340BA69C2F363
:105210000B021A43FB689A62BB681B69002B16D00D
:10522000BB681B69190A7B69009340F6FF73012272
:105230007868FFF715FEB861FB68DB6A0C4A1A4014
:10524000BB6919020B4B0B401A43FB68DA62BB685F
:105250001B781946F868FFF75EFD00BF2837BD468A
:1052600080BD00BFC8CF0000FFFDFFF800F0FFFFCA
:10527000FF00F0FF00FF0F0080B58EB000AFF860B8
:10528000B9607A60FB689B6A1B0CDBB203F00F030A
:1052900087F82930012387F83730012387F8363023
:1052A000002387F83530002387F83430002387F84F
:1052B000333000237B624FF0FF33FB6200233B62FD
:1052C000FB681B6903F00103002B14BF01230023BB
:1052D000FB770021F868FFF71EFD002387F83530C3
:1052E0006CE0BA6813469B0013445B001A4697F8BB
:1052F0003730B2FBF3F27B68B2FBF3F305338D4A30
:10530000A2FB0323DB08DAB297F82930991C97F83F
:105310003730B1FBF3F3DBB2D31ADBB2023BBB771E
:10532000BA7F97F82930991C97F83730B1FBF3F31F
:10533000C3F178039A4205D997F837305B0087F8B4
:10534000373036E097F83730BA68B2FBF3F2B97FFE
:1053500097F82930981C97F83730B0FBF3F30B44DB
:105360000233B2FBF3F3BB617A68BB699A4203D99B
:105370007A68BB69D31A02E0BA697B68D31A7B6288
:105380007A6AFB6A9A420FD297F8353087F8343040
:1053900097F8373087F83630BB7F87F833307B6A31
:1053A000FB627B6A002B0ED097F837305B0087F8E2
:1053B000373097F83530013387F8353097F8353086
:1053C000072B8ED900E000BF97F8332097F82930DB
:1053D000991C97F83630B1FBF3F3D31A5B0887F8C2
:1053E0002B3004E097F82B30013B87F82B3097F8EF
:1053F0002B2097F83310BB68342003FB00F07B6848
:10540000B0FBF3F097F83630B0FBF3F34A48A0FB5B
:1054100003035B09CB1A01339A42E3D8BA687B686D
:10542000B2FBF3F297F83630B2FBF3F35B08DBB272
:10543000013BFB75BA687B68B2FBF3F297F8363034
:10544000B2FBF3F39B08DBB2013BBB75BA687B6828
:10545000B2FBF3F3374AA2FB03231A0997F836305D
:1054600002339A4233D9FB689B6A1B0EDBB203F00E
:105470000F0387F82A3097F82A20B9687B68B1FBB8
:10548000F3F32C49A1FB0313190997F83630CB1A13
:10549000023B9A420FD2BA687B68B2FBF3F3254A0B
:1054A000A2FB03231B09DAB297F83630D31ADBB21A
:1054B000023B87F82A30FB689B6A23F0706297F8FA
:1054C0002A301B0603F070631A43FB689A6297F850
:1054D0002B301B0203F47C5297F8331097F82B30D3
:1054E000CB1ADBB203F03F031A43FB7D1B0403F42A
:1054F0007C131A43BB7D1B0603F07C5313433B62B2
:10550000FB683A6A9A64FB685B6A23F0070297F8C3
:10551000343003F007031A43FB685A62FB7F002B09
:1055200003D00121F868FFF7F6FB00BF3837BD460E
:1055300080BD00BFCDCCCCCC1F85EB5180B584B0F5
:1055400000AF78607868FFF72DFDF860FB68002BEE
:1055500020D17B684FF400721A6618E07868FFF774
:10556000EEFBB860B9687868FFF7CEFCF860BB68FE
:1055700003F40073002B0AD0BB6803F00103002B77
:1055800005D04FF400717868FFF7E5FB02E0FB6897
:10559000002BE3D0FB6818461037BD4680BD0000E5
:1055A00080B588B000AFF860B9607A60BB68002B46
:1055B00006D1324B324A40F26F31324805F0F0FEEC
:1055C0000023FB617B687B617B68B3F5806F01D949
:1055D00004234FE07B68002B4BD0F868FFF7E2FC18
:1055E000F861FB69002B44D115E07B69B3F5807F3E
:1055F00008D9FB6840F2FF121A667B69A3F5807335
:105600007B6108E07B69013BDBB243F48072FB689D
:105610001A6600237B617B69002BE6D1BB68BB6106
:1056200020E000233B61F868FFF789FB0346194639
:10563000F868FFF769FCF861FB69002B08D1FB688B
:105640001B6F3B613B6903F48043002BEBD100E00F
:1056500000BFFB69002B0BD1BB695A1CBA613A69C8
:10566000D2B21A707B685A1E7A60002BD9D100E042
:1056700000BFFB6918462037BD4680BD4CCB0000FB
:1056800014D00000ECCA000080B586B000AFF8600E
:10569000B9607A6000237B61BB683B61BB68002B0B
:1056A00014D1104B104A4FF47671104805F078FE73
:1056B000F868FFF777FC78617B69002B0CD13B69B8
:1056C0005A1C3A611B781A46FB681A667B685A1E98
:1056D0007A60002BECD100E000BF7B6918461837D8
:1056E000BD4680BD5CCB000028D00000ECCA0000A5
:1056F00080B58AB000AF786039603B68002B06D176
:105700007B4B7C4A4FF47F717B4805F049FE3B6838
:10571000DB68042B06D9794B764A40F2FD31764896
:1057200005F03EFE00237B6200233B623B689B79D1
:10573000012B06D13B685B69B3F5806F01D9042367
:10574000D2E001217868FFF7E6FA00217868FFF7D8
:1057500045FB7868FFF74FFC78627B6A002B40F0CE
:10576000C2804FF4FE417868FFF7F5FA7B685B6A08
:1057700023F480727B685A623B68DB68002B02D19D
:105780003B689B7900E00023FB753B681B6803F0D6
:105790000103002B12D13B689B885B009AB2FB7D12
:1057A0009BB213439AB23B6A591C396242F480623D
:1057B00092B25B0028333B4423F8202C3B68DB6823
:1057C000002B19D03B68DB68FB6110E03B689A68EE
:1057D000FB69DB0022FA03F3BB753B6A5A1C3A6291
:1057E000BA7D92B25B0028333B4423F8202CFB693E
:1057F0005A1EFA61002BE9D13B685B69002B17D078
:105800003B689B79012B13D1FB7D002B10D13B68AA
:105810009B885B0099B23A6A531C3B6240F2014399
:105820000B4399B2530028333B440A4623F8202CFB
:105830000023BB6112E07868FFF7B4FB78627B6AF3
:10584000002B11D1BB695B0028333B4433F8203C6B
:105850001A467B681A66BB690133BB613B6A5A1EF4
:105860003A62002BE7D100E000BF7B6A002B2ED10B
:105870003B689B79002B0CD13B685B69002B08D0FF
:105880003B6819693B685B691A467868FFF7FCFE5C
:1058900078623B689B79012B0CD13B685B69002BDC
:1058A00008D03B6819693B685B691A467868FFF75E
:1058B00077FE78627B6A002B09D13B681B6803F096
:1058C0000403002B03D17868FFF738FE78627B6A07
:1058D000002B08D03B681B6803F00403002B02D1A7
:1058E0007868FFF72BFE7B6A18462837BD4680BDD7
:1058F0006CCB00003CD00000ECCA000080CB000064
:1059000080B582B000AF786039607B681B6903F0B6
:105910000103002B0CD0144B1B68002B08D0124B3A
:105920001B6812493A6851F8222011467868984756
:105930007B68D3F8103103F00103002B0CD00C4B23
:105940001B68002B08D00A4B1B680A493A6851F8BB
:105950002220114678689847BFF34F8F00BF00BFE1
:105960000837BD4680BD00BFF0A10020F4A1002093
:1059700008A200200CA2002080B500AF012102483F
:10598000FFF7BEFF00BF80BD00003F4080B500AF05
:1059900002210248FFF7B4FF00BF80BD00403F4036
:1059A00080B500AF03210248FFF7AAFF00BF80BD0A
:1059B00000803F4080B500AF04210248FFF7A0FF00
:1059C00000BF80BD00C03F4080B48BB000AFF86026
:1059D000B9607A60FB687B617B6953E8003F3B619B
:1059E0003B697B62BB68DA437B6A13407A68134386
:1059F0007B627B6A3B62FB68FB61F9693A6A41E85A
:105A00000023BB61BB69002BE4D100BF00BF2C3772
:105A1000BD465DF8047B704780B586B000AF034695
:105A20000A46FB8013467B71B7F906301B0A7B617F
:105A3000FB8803F01F033B617B69072B06D90E4BE4
:105A40000E4A40F2DE510E4805F0AAFC7B699A002E
:105A50000C4B1344FB6003223B6902FA03F17A7991
:105A60003B6902FA03F31A46F868FFF7ADFF00BF7F
:105A70001837BD4680BD00BF38CC0000ACD0000058
:105A800048CC000068C00F4080B582B000AF03462C
:105A9000FB80B7F9063003211846FFF7BDFF00BFB2
:105AA0000837BD4680BD80B483B000AF78600B4638
:105AB000FB70FB78002B06D07B681B6943F001026A
:105AC0007B681A6105E07B681B6923F001027B6833
:105AD0001A6100BF0C37BD465DF8047B704780B487
